:020000040800F2
:1000000088480120B1010008FB2B0008FF210008EF
:10001000F92B00086D0500083D32000800000000C3
:10002000000000000000000000000000012F000898
:100030003D090008000000000D2C0008032F0008F7
:10004000CB010008CB010008CB010008CB01000860
:10005000CB010008CB010008CB010008CB01000850
:10006000CB010008CB010008CB010008CB01000840
:10007000CB010008CB010008CB010008CB01000830
:10008000CB010008CB010008CB01000800000000F4
:10009000000000000000000000000000CB0100088C
:1000A000CB010008A92F0008CB010008CB010008F4
:1000B000CB010008CB010008CB010008CB010008F0
:1000C000CB010008CB010008CB010008112C00086F
:1000D000CB010008CB010008CB01000800000000A4
:1000E000CB010008CB010008CB0100080000000094
:1000F000000000000000000000000000CB0100082C
:1001000000000000CB010008CB010008CB01000873
:1001100000000000000000000000000000000000DF
:1001200041070008CB0100084D070008CB0100087B
:10013000CB010008000000000000000000000000EB
:10014000000000000000000000000000CB010008DB
:10015000CB010008CB010008CB010008CB0100084F
:10016000CB010008CB0100080000000000000000E7
:10017000000000000000000000000000000000007F
:1001800000000000CB01000800000000000000009B
:10019000CB010008CB010008DFF810D000F04CF9CB
:1001A00000480047C14F0008AFF300808848012095
:1001B0000648804706480047FEE7FEE7FEE7FEE701
:1001C000FEE7FEE7FEE7FEE7FEE7FEE7992F000801
:1001D000990100082DE9F05F0546002092469B46F4
:1001E00088460646814640241BE02846414647464D
:1001F000224600F0D8F853465A46C01A914110D30F
:1002000011461846224600F0BFF82D1A67EB010888
:100210004F4622460120002100F0B6F817EB0009F6
:100220004E41201EA4F10104DFDC484631462A4637
:100230004346BDE8F09F0000004870476451010844
:100240000649074A0868504343F2390210440860DF
:1002500040087047014908607047000034020020E0
:100260006D4EC64110B5431A934209D283188818BF
:1002700003E010F8011D03F8011D521EF9D210BD54
:1002800040EA01039B0703D009E008C9121F08C018
:10029000042AFAD203E011F8013B00F8013B521E98
:1002A000F9D210BDD2B201E000F8012B491EFBD2F9
:1002B00070470022F6E710B513460A460446194671
:1002C000FFF7F0FF204610BD30B505462A460B4625
:1002D00012F8010B13F8014B08B1A042F8D01CB181
:1002E000002802D06D1CF1E7284630BD10B5044649
:1002F00004E00B7800F8013B03B1491C521EF8D210
:10030000204610BDCAB2401E10F8011F8A4202D01A
:100310000029F9D100207047421C10F8011B002968
:10032000FBD1801A704730B504460020034600E038
:100330005B1C934203D2E05CCD5C401BF8D030BD27
:10034000034611F8012B00F8012B002AF9D11846B9
:10035000704710B54843044605F09AF8002805D0C8
:100360000021002C02D0641E0155FAE710BD70B5C3
:10037000064603F027F8046805460A2200213046A5
:1003800000F021F82C6070BD202A04DB203A00FA2E
:1003900002F1002070479140C2F1200320FA03F3DC
:1003A000194390407047202A04DB203A21FA02F0DA
:1003B0000021704721FA02F3D040C2F1200291409F
:1003C0000843194670472DE9F04791460F4680468D
:1003D0000446002614F8015B2DB1FFF72DFF0068DD
:1003E000405DC007F6D12B2D02D02D2D18D0641EF4
:1003F0004A463946204600F031F827B13968A14213
:1004000001D1C7F8008071054FF002040BD54042BE
:10041000002803DD02F0D6FF0460A007BDE8F087E6
:1004200046F48066E4E70028F8DA02F0CBFF0460C7
:100430006FF00040F2E70000064C074D06E0E06870
:1004400040F0010394E8070098471034AC42F6D31B
:10045000FFF7A6FED0610108F06101082DE9F05F09
:1004600082460078002715468B460AF10104B946FA
:10047000302801D09DB113E014F8010B0127782832
:1004800003D0582801D045B10AE00DB1102D07D195
:100490000027102514F8010B02E0082500E00A25CA
:1004A0000026B0460EE005FB080005FB06F101271B
:1004B00001EB10461FFA80F8B6F5803F00D3B9462D
:1004C00014F8010B294600F018F80028EBDABBF10C
:1004D000000F05D00FB1641E00E05446CBF8004079
:1004E000B9F1000F06D002F06DFF02210160C81EB5
:1004F000BDE8F09F48EA0640FAE73A2800D23038D3
:1005000020F02002412A01D3A2F13700884201D312
:100510004FF0FF30704770B58C1810F8015B15F084
:10052000070301D110F8013B2A1106D110F8012B65
:1005300003E010F8016B01F8016B5B1EF9D12B078A
:1005400005D40023521E0DD401F8013BFAE710F840
:10055000013BCB1A921C03E013F8015B01F8015B2D
:10056000521EF9D5A142D8D3002070BDFEE700008D
:10057000F8B51D4F0D460646002406221949384697
:10058000009402F07FFE174801784278C378114347
:1005900082781A43114302791143427911430CD1F5
:1005A000047008214170DC218170C47004714471B1
:1005B00001460622384602F0ABFE0A4F0B48403F88
:1005C0000422BE70C7E90E056946094802F0A0FE84
:1005D00004226946074802F09BFE0FF06FFA3C7058
:1005E000F8BD0000AC010020002041007856341214
:1005F00000384100003041002DE9F041464C2078A0
:10060000062822D0A07843F2080101EB401002F046
:1006100017FE222805D0002344220221A07810F0E2
:10062000A3F901250EF048FAC2B23B4894F9003014
:10063000C01D00260127011F4FF00308052B2FD2F4
:10064000DFE803F0060D1C304A000520BDE8F0810C
:10065000067046708670C6700FF0FAFD5AE0022AE6
:100660001BD1E16B0A7C02704A7C42708A7C8270EA
:10067000C97CC1700FF0D6FE02202BE0052A0AD1FA
:1006800003F01CFB08B1606A3CE00FF017FAE06A67
:100690008047267004E0062A3AD003F047FB05465F
:1006A0002846D3E7A2690425531CF9D0E369B3EBCC
:1006B000520FF5D902780A7042784A7082788A70AF
:1006C000C078C870A06B401CA0630FF0ABFE0FF0A9
:1006D000F5F904202070E3E70425052ADBD16670D4
:1006E0000A7803789A420BD14A7843789A4207D124
:1006F0008A7883789A4203D1C978C078814202D03F
:10070000A06A032580470FF0D9F984F80080C7E775
:100710000FF0D4F92770C3E76C01002010B5034C2B
:10072000A07803F03BFB0620207010BD6C01002078
:100730000248C169491CC161704700006C0100207A
:10074000014800F013B90000D0200020014800F05B
:100750000DB900007020002001681823CAB2103AB9
:10076000B2FBF3F2054B6FF30901032A9B5CC365EF
:1007700000D9091D8165084670470000B84001088E
:1007800010B5014600208B698A6A4FF0C07453B1DE
:10079000B3F5005F15D072B1012A0CD0022A0AD03D
:1007A000032A09D104E01AB1012A06D0022A03D192
:1007B000C96AC90100D5012010BDC96AA142FAD099
:1007C00010BD002AF7D0012AF2D0022AF3D0032A62
:1007D000F3D010BD30B50468256825F48025256068
:1007E000046863608368402B036803D099600068E5
:1007F000C26030BD9A600068C16030BD0249486087
:1008000041F2221048807047BC01002070B50546B7
:1008100014460846FFF7F2FF04480021C460017047
:100820002846BDE8704003F0B9BA0000EC01002092
:100830002DE9FF4F8BB03A4C4FF004098DF81C9016
:10084000227800269B468246042A0DD0354F387800
:1008500072B1DFF8D4804FF48075012A0FD0022ADC
:1008600028D0032A5AD153E002200FB0BDE8F08F00
:1008700000231A46022110F077F8012018E02B46D9
:1008800045460020D8F8002003F076FF9DF81C2094
:100890003521CDE9001202B25346387829680FF0AD
:1008A00005FF0A2011F0F4FEE0688047A0600220F6
:1008B000207033E0B94604F0B7F90004000C4FF0A3
:1008C00003071BD0A84200D9284607AA09A9CDE9E9
:1008D000001202B208AB454699F80000D8F80010A3
:1008E0000EF096FF0D9A02A829680EF0C5F940B2E5
:1008F00008B1012601E04FF0FF362770E06880471D
:10090000A168411A594509D327706FF0010605E027
:100910000021A16003F042FA84F800903046A4E779
:10092000EC010020C8010020C001002002488168BD
:10093000491C816070470000BC010020704772B6FE
:10094000FEE790F83510022903D08021416501208F
:100950007047052180F835100068016821F0010119
:1009600001600020704790F8350070472DE9F8438A
:1009700004464FF00009CDF8009063484FF416513B
:10098000A56D0068B0FBF1F72E6894F85C100820A4
:1009900000FA01F131420FD021680A6852070BD5E5
:1009A0000A6822F004020A6094F85C108840A8608B
:1009B000606D40F00100606594F85C104FF0010834
:1009C00008FA01F0304208D021684969090604D5C7
:1009D000A860606D40F00200606594F85C1004202F
:1009E0008840304208D021680968890704D5A8608A
:1009F000606D40F00400606594F85C101020884041
:100A0000304218D021680968090714D5A860206809
:100A10000168490304D50068000308D5A16C07E00C
:100A20000168C90503D4016821F008010160216C47
:100A300009B12046884794F85C1020208840304255
:100A400031D021680968C9062DD5A86094F8350011
:100A500005282068016806D0490347D500680003CF
:100A60001DD4616C1CE021F0160101602068416911
:100A700021F080014161206C08B9A06C20B1206890
:100A8000016821F00801016094F85C103F20884063
:100A9000A86084F8358084F83490216D1FE0E16B04
:100AA00009B120468847606D00282BD0606DC007D3
:100AB00014D0052084F835002068016821F0010178
:100AC00001600098401C0090B84203D8206800687C
:100AD000C007F6D184F8358084F83490E16C0029A1
:100AE00010D001B02046BDE8F04308470168C905B1
:100AF000D5D4016821F01001016084F8358084F8B4
:100B00003490CCE7BDE8F883380100202DE9F041AE
:100B1000044600F0A5F906465CB1022084F83500D1
:100B2000002584F834502068016821F0010101603B
:100B30000DE00120BDE8F08100F092F9801B05284E
:100B400005D920206065032084F83500F2E720688D
:100B50000068C007F0D12268116820480140D4E93C
:100B600001031843D4E90336334318436369184338
:100B7000A3691843E3691843236A18430843616A69
:100B8000042903D1D4E90B131943084310602068EA
:100B90004069666A20F0070130460E4301270428A9
:100BA0000CD1A06A0643E06A40B12046FFF7E8FD99
:100BB00020B14020606584F83570BAE7206846614E
:100BC0002046FFF7C9FD94F85C203F2191408160E9
:100BD000656584F835700020ACE700003F8010F0B8
:100BE0002DE9F0410446866D90F834000025012877
:100BF0000DD0012084F8340094F835700020012FC6
:100C000007D084F8340002252846BDE8F081022090
:100C1000FBE7022784F8357060652046FFF7DAFDB0
:100C200094F85C103F208840B0602068016841F073
:100C300016010160206C20B12068016841F00801B4
:100C400001602068016841F001010160DCE70000FB
:100C500070B5044600F004F90546601C02D0044853
:100C60000078044400F0FCF8401BA042FAD370BDA9
:100C70002C0100202DE9F84FDFF8B8A10022012453
:100C800003254FF00F090AF1040BAAF1040E00BF6F
:100C90000B6804FA02F63340B34273D10F7907F0C0
:100CA0000307012F01D0022F16D187684FEA4208AF
:100CB00005FA08FC27EA0C07D1F80CC00CFA08FC6E
:100CC0004CEA070CC0F808C04768B7430E79C6F372
:100CD000001696403E4346600E79F643B6070DD0A7
:100CE000C768560005FA06FC27EA0C07D1F808C0C9
:100CF0000CFA06FC4CEA070CC0F80CC00E7906F0A2
:100D00000306022E10D1D60800EB8608D8F8206022
:100D100057074FEAD76C09FA0CF7BE430F6907FA79
:100D20000CF73743C8F8207006684FEA420C05FA02
:100D30000CF7BE430F7907F0030707FA0CF73743A8
:100D400007604E6816F4403F6DD03B4E376847F45D
:100D500080473760366822F0030706F48046009625
:100D6000364E07EB060CDCF8086897073F0F09FAC8
:100D700007F826EA0806DFF8C880404503D14FF09F
:100D800000081EE04FE0DFF8BC80404502D14FF084
:100D9000010816E0DFF8B080404502D14FF00208AC
:100DA0000FE0DFF8A880404502D14FF0030808E0CB
:100DB000DFF89C80404502D14FF0040801E04FF07D
:100DC000070808FA07F848EA0608CCF80888DAF8AD
:100DD00000605746D1F804C09E435FEACC2C00D592
:100DE0001E433E60DBF800605F46D1F804C09E43BE
:100DF0005FEA8C2C00D51E433E60DEF8006077462B
:100E0000D1F804C09E435FEA8C3C00D51E433E608F
:100E1000084F083F3E68D1F804C09E435FEACC3CCF
:100E200000D51E433E60521C102AFFF431AFBDE8CE
:100E3000F88F0000083C0140443802400030014077
:100E4000000002400004024000080240000C024082
:100E5000001002400AB1816170470904FBE70000FD
:100E600001488068704700002C010020024881681A
:100E700002781144816070472C0100200B4810B5A6
:100E8000016841F400710160016841F48061016012
:100E9000016841F480710160032000F071F80020C6
:100EA00000F006F800F024F8002010BD003C0240DD
:100EB00070B50D4D04464FF47A712878B1FBF0F00F
:100EC0000A490968B1FBF0F000F0D2FE48B9102CD5
:100ED00007D200222146501E00F032F800206C603C
:100EE00070BD012070BD00002C01002038010020E1
:100EF0000B4882B0016841F480410160006800F451
:100F0000804000900648001F016841F08051016058
:100F1000006800F080500090072002B000F030B868
:100F200044380240002809DB00F01F0201219140F3
:100F30004009800000F1E020C0F800117047000077
:100F4000F0B40E4B1B680C46C3F30223C3F1070534
:100F5000042D00D90425191D072901D2002300E022
:100F6000DB1E012606FA05F1491E214099409E40EC
:100F7000761E16403143F0BC02F014BA0CED00E0CE
:100F8000064900F0070208684FF6FF03184040EAE0
:100F90000220034A10430860704700000CED00E097
:100FA0000000FA052DE9F0470E46050065D0DFF890
:100FB0001481D8F80000F7B200F00700B04207D261
:100FC00088F80070D8F8000000F00700B04254D153
:100FD00028683D4C810712D5400703D5206840F4AE
:100FE000E05020602878000703D5206840F4604076
:100FF00020602068A96820F0F0000843206028786D
:10100000C0072DD0304968680839012812D002285D
:1010100013D0032811D00968890700292DDA216827
:1010200021F0030101432160FFF71AFF814641F2DD
:10103000883A0EE009688903EFE709688901ECE75F
:10104000FFF70EFFA0EB0901514502D90320BDE8CF
:10105000F0872068696800F00C00B0EB810FEFD1D9
:10106000D8F80010404601F00701B14207D90770D7
:10107000006800F00700B04201D00120E7E72878BF
:10108000400705D52068E96820F4E0500843206057
:101090002878000706D52068296920F4604040EAD6
:1010A000C100206000F038F82168084AC1F303113C
:1010B000515CC8400649086006480068FFF7F8FE22
:1010C0000020C4E7003C024008380240C04001084C
:1010D00038010020300100200448054900680968F3
:1010E000044AC1F38221515CC84070473801002096
:1010F00008380240D04001080448054900680968E2
:10110000044AC1F34231515CC840704738010020A5
:1011100008380240D0400108154810B5006810F0AA
:101120000C02144813D04110042A0FD0082A0ED103
:101130000F4C241F2268236802F03F025B0207D590
:101140002068C0F38810A0FB010106E0084610BD2E
:101150002168C1F38811A1FB00010023FFF73AF8D1
:101160002168C1F30141491C4900B0FBF1F010BDF9
:10117000083802400024F4002DE9F84F04006ED036
:101180002078DFF84C93C007A9F104054AD009F193
:1011900004000168C1F38101012908D00068C0F38F
:1011A000810002280AD1D9F80000400206D528683B
:1011B000800337D560680028E1D033E06068B0F57F
:1011C000803F10D0B0F5A02F286810D020F48030D8
:1011D0002860286820F4802028606068A8B1FFF7A4
:1011E0003FFE06460DE0286840F48030F4E740F406
:1011F00080202860F7E700BFFFF732FE801B6428DD
:1012000073D828688003F7D50CE0FFF729FE06465F
:1012100005E000BFFFF724FE801B6428F0D8286893
:101220008003F7D42078DFF8AC8280074FF0000A03
:101230003ED5A748001D016811F00C0F08D00068CA
:10124000C0F3810002280BD1D9F80000400207D476
:101250002868800716D5E068012800D112E033E144
:10126000E068B8B10120C8F80000FFF7F9FD0646B4
:1012700005E000BFFFF7F4FD801B0228C0D82868F6
:101280008007F7D52868216920F0F80040EAC100FE
:1012900028600DE0C8F800A0FFF7E2FD064604E074
:1012A000FFF7DEFD801B02281FD828688007F7D4CF
:1012B0002078000722D5864F87486169703771B161
:1012C00001210160FFF7CCFD064604E0FFF7C8FDF1
:1012D000801B022809D838688007F7D50EE0C0F8CF
:1012E00000A0FFF7BDFD064605E082E0FFF7B8FD70
:1012F000801B02287DD838688007F7D42078400703
:1013000068D5DFF8CCB100270BF13C0BDBF800000F
:10131000C0000BD4DBF8001041F08051CBF8001076
:10132000DBF80000012700F0805000906B4E306821
:10133000C00510D4306840F480703060FFF790FD35
:10134000009005E0FFF78CFD0099401A022850D864
:101350003068C005F6D55E4EA0686C3601280FD007
:101360000528306810D020F001003060306820F08F
:1013700004003060A068B8B1FFF772FD00900FE084
:10138000306840F00100F4E740F004003060F7E717
:10139000FFF766FD0099411A41F28830814266D814
:1013A00030688007F4D50EE0FFF75AFD009007E0A3
:1013B000FFF756FD0099411A41F28830814256D814
:1013C00030688007F4D42FB1DBF8001021F0805191
:1013D000CBF80010A069C8B33D49091D0968C1F3E5
:1013E000810102294AD00228504607D0C8F860007F
:1013F00000E03CE0FFF734FD04463BE04746C8F818
:101400006000FFF72DFD064605E000BFFFF728FD51
:10141000801B02282BD828688001F7D4D4E9070163
:101420000843A16A2E4A490802EB0141626A41EA77
:101430008211084394F82C1040EA0161C9F80010A9
:1014400001203866FFF70CFD044606E03EE000BFD1
:10145000FFF706FD001B022809D828688001F7D590
:1014600034E000BFFFF7FCFC001B022802D9032078
:10147000BDE8F88F28688001F4D427E00128F7D070
:10148000D9F80000E26900F4800191421CD1226A7F
:1014900000F03F01914217D147F6C071626A0140E6
:1014A000B1EB821F10D1A26A4FF0FF3300F440313C
:1014B00003EB5202B1EB024F06D194F82C1000F06E
:1014C0007060B0EB016F01D00120D1E70020CFE7C1
:1014D0000438024000004742800E4742007000403E
:1014E0000000FFFF704790F85100704738B5016861
:1014F00004464A688868C043430606D5C30704D13A
:10150000D3435B0601D4216C05E0830708D4D343A1
:101510001B0605D4616C01B02046BDE83040084789
:10152000830603D5430601D5C30551D4D3439B0697
:101530004ED443060AD494F85130032B49D0636D3E
:1015400043F004036365CB688B680093830609D47A
:10155000636D43F0010363658B6800930B6823F0B0
:1015600040030B60C00506D4606D40F00800606564
:10157000206880680090606D002829D0206841684C
:1015800021F0E0014160012084F85100900701D46E
:10159000D00722D02068416821F003014160114D3D
:1015A000E06C40B10565E06CFFF7CBF918B1606DF8
:1015B00040F040006065A06C002809D00565A06C73
:1015C000FFF7BFF9002803D0606D40F04000606570
:1015D00038BDC8688868009038BD2046FFF782FF94
:1015E00038BD00001D2C000870B5040009D0606AE9
:1015F000002540B125616561A56294F8510040B1B4
:101600000CE0012070BD6068B0F5827FF4D0E56128
:10161000F2E784F85050204600F044F8022084F8A5
:1016200051002068016821F040010160A0882189F3
:1016300000F4827001F404410843A18901F40061BF
:101640000843217C01F002010843217D01F00101E2
:101650000843218B01F400710843217F01F0380118
:10166000084394F8201001F080010843218D01F413
:101670000051084321680860A069042101EA104074
:1016800094F8241001F01001084321684860206894
:10169000C16921F40061C1616565012084F85100D0
:1016A000002070BD2DE9F04186B006461421684641
:1016B000FEF7FFFD3049306888425AD12F48002498
:1016C000016841F480510160006800F48050059089
:1016D0002A481438016841F0010101600068694638
:1016E00000F001000590E02000900220CDE9010407
:1016F00003200390052004902148FFF7BBFA224DF8
:10170000204805F1080128604FF0806068604020A3
:10171000070181E891006C614FF40038AC61C5E9C4
:10172000074828466C62FFF7F1F908B1FFF707F99F
:10173000B564AE631348154D303828604FF0C06073
:10174000C5E90104C5E903476C61AC61C5E9074817
:1017500028466C62FFF7DAF908B1FFF7F0F8F56494
:10176000002211462320AE63FFF7EAFB2320FFF798
:10177000D9FB06B0BDE8F08100300140443802409A
:10178000000002404064024070200020D020002071
:101790002DE9F041044600268068042318B96568E5
:1017A000B5F5827F0ED094F85050012D13D001274B
:1017B00084F8507094F851C00025BCF1010F0DD091
:1017C000022654E084F851302046BDE8F04113462B
:1017D0000A4600F04BB90220BDE8F08171B16AB150
:1017E00084F851306565A163A287E287256465644A
:1017F000A586E586B0F5004F02D00BE0012636E065
:101800002068016821F0400101602068016821F42E
:1018100080410160E16C18480864E16C1748C863B6
:10182000E16C1748C864E06C0565E38F2168A26B22
:101830000C31E06CFFF7D4F938B1606D40F0100066
:101840006065012684F8517011E02068016849063E
:1018500003D4016841F0400101602068416841F013
:10186000200141602068416841F00101416084F835
:1018700050503046B0E700004F2C00086D2C000897
:101880002D2C0008704770472DE9F84F044690F85A
:10189000500000270A9E1D4692468B464FF00109D4
:1018A00001280ED0012084F85000FFF7D9FA8046B5
:1018B00094F85100616801280CD0B1F5827F07D1FE
:1018C00002E00220BDE8F88FA16809B9042801D020
:1018D0000227C2E0BBF1000F27D0BAF1000F24D0DD
:1018E0001DB394F85100042802D0052084F851005B
:1018F00000206065C4F838A0E587A587C4F830B03B
:10190000E586A5862064606420680168490603D4E2
:10191000016841F040010160E068B0F5006F606867
:1019200005D0E8B3012D46D07FE0012795E008B14E
:10193000012D39D1206B21680088C860206B801C84
:101940002063E08E401EE0862EE0206881688907D3
:101950000FD5E18E69B1B9F1010F0AD1216B098868
:10196000C160206B801C2063E08E401EE0864FF03B
:10197000000920688168C9070CD0E18F51B1C068A7
:10198000A16B0880A06B801CA063E08F401EE087E5
:101990004FF00109FFF764FAA0EB0800B04200E045
:1019A00009E001D3701C50D1E08E0028CDD1E08F2A
:1019B0000028CAD13FE0206B216800780873206BB3
:1019C000401C2063E08E401EE0862EE02068816887
:1019D00089070FD5E18E69B1B9F1010F0AD1216BE9
:1019E00009780173206B401C2063E08E401EE08666
:1019F0004FF0000920688168C9070CD0E18F51B110
:101A0000C068A16B0870A06B401CA063E08F401EF3
:101A1000E0874FF00109FFF723FAA0EB0800B0427E
:101A200002D3701C01D010E07EB1E08E0028CDD131
:101A3000E08F0028CAD142463146204601F0D8F94D
:101A400028B101272020606507E0032705E0A06892
:101A500018B92068C16880680090012084F851009E
:101A6000002084F8500038462CE700002DE9F041B2
:101A7000044690F85000002601280DD0012784F874
:101A8000507094F851000025D4F804C001280FD0FC
:101A9000BCF5827F0AD102E00220BDE8F081D4F8D3
:101AA00008C0BCF1000F01D1042801D0022660E07B
:101AB00049B342B33BB394F85100042802D0052047
:101AC00084F8510065652163A386E386A263A3873A
:101AD000E3872564656494F85100042815D0E16C0F
:101AE000264808642648E16CC863E16C2548C86450
:101AF000E06C0565E38F2168A26B0C31E06CFFF7A9
:101B00006FF8E0B906E0012633E0E16C1E48086496
:101B10001E48E8E72068416841F001014160A06C7F
:101B20000564A06CC563A06CC564A06C0565E38EFC
:101B30002268216B0C32A06CFFF752F838B1606D4F
:101B400040F010006065012684F8517011E02068B3
:101B50000168490603D4016841F040010160206832
:101B6000416841F0200141602068416841F0020174
:101B7000416084F8505030468FE70000632C000825
:101B80003B2D00082D2C00084F2C00086D2C000860
:101B90002DE9F041044690F850000026012809D0B4
:101BA000012784F8507094F851000025012804D0D2
:101BB00002264EE00220BDE8F08189B182B1032007
:101BC00084F8510065652163A286E286A563656499
:101BD0002564A587E587A068B0F5004F02D00BE02B
:101BE000012636E02068016821F04001016020688C
:101BF000016841F480410160A16C18480864A16C3F
:101C00001748C863A16C1748C864A06C0565E38ECB
:101C10002268216B0C32A06CFEF7E2FF38B1606DD8
:101C200040F010006065012684F8517011E02068D2
:101C30000168490603D4016841F040010160206851
:101C4000416841F0200141602068416841F0020193
:101C5000416084F850503046ADE70000592C000830
:101C6000D72C00082D2C000870477047704770472C
:101C700010B5401EB0F1807F01D3012010BD4FF0A0
:101C8000E02460610F21601701F08CFB0020A0614F
:101C900007202061002010BD7047704770B590F894
:101CA0003C20012A2CD0012480F83C40022280F8FC
:101CB0003D2003685A689D6822F070060A68324326
:101CC0005A60104B02689A420ED0B2F1804F0BD08E
:101CD0000D4B9A4208D00D4B9A4205D00C4B9A42BC
:101CE00002D00C4B9A4204D1496825F08003194375
:101CF000916080F83D40002180F83C10084670BD9E
:101D0000022070BD000001400004004000080040B7
:101D1000000C00400040014010B5040003D094F8CE
:101D20003D0010B107E0012010BD002084F83C0008
:101D3000204600F01FF8022084F83D00211D206895
:101D400001F038F9012084F8460084F83E0084F858
:101D50003F0084F8400084F8410084F8420084F891
:101D6000430084F8440084F8450084F83D000020D6
:101D700010BD000008B500680B49884212D10B481D
:101D8000016841F0010101600068002200F00100DB
:101D9000009011461920FFF7D3F8BDE8084019203C
:101DA000FFF7C0B808BD0000000001404438024001
:101DB00090F83D10012901D001207047022180F8E0
:101DC0003D100168CA6842F00102CA6000680E490D
:101DD00088420ED0B0F1804F0BD00C49884208D019
:101DE0000B49884205D00B49884202D00A498842F3
:101DF00004D1816801F00701062903D0016841F090
:101E00000101016000207047000001400004004013
:101E100000080040000C00400040014070B504463E
:101E200090F83C000025012817D0012684F83C607A
:101E3000022084F83D002068826822F0770222F4B4
:101E40007F4282600868502838D00DDC20284FD0AF
:101E500005DC90B3102811D14AE0022070BD302873
:101E600046D040280AD13BE060282FD070280DD002
:101E7000B0F5805F03D0B0F5005F12D0012584F883
:101E80003D60002084F83C00284670BDCB68D1E955
:101E90000121206801F0DAF82068816841F07701BB
:101EA00009E0CB68D1E90121206801F0CFF8206872
:101EB000816841F480418160E1E719E0CA684968BE
:101EC000206801F0D5F85021206806E0CA6849680A
:101ED000206801F0DEF86021206801F0C1F8CEE74B
:101EE000CA684968206801F0C3F840212068F4E717
:101EF000226801461046F0E7704770B50446006856
:101F000001694FF00005C943890715D4C168C94369
:101F1000890711D4E91E01610120207720688069BA
:101F20008007204602D0FFF7E7FF04E000F098F8B2
:101F3000204600F096F8257720680169C9434907D3
:101F400017D4C168C943490713D46FF00401016174
:101F5000022020772068806910F4407F204602D05C
:101F6000FFF7CAFF04E000F07BF8204600F079F8A4
:101F7000257720680169C943090716D4C168C94398
:101F8000090712D46FF0080101610420207720684E
:101F9000C0698007204602D0FFF7AEFF04E000F0E2
:101FA0005FF8204600F05DF8257720680169C94395
:101FB000C90617D4C168C943C90613D46FF010010C
:101FC0000161082020772068C06910F4407F204616
:101FD00002D0FFF791FF04E000F042F8204600F045
:101FE00040F8257720680169C943C90708D1C1684D
:101FF000C943C90704D1891E0161204600F032F8A7
:1020000020680169C943090609D4C168C9430906A2
:1020100005D46FF0800101612046FFF73DFE206886
:102020000169C943490609D4C168C943490605D4B1
:102030006FF040010161204600F022F8206801693C
:10204000C94389060BD4C168C943890607D46FF018
:10205000200101612046BDE87040FFF71EBE70BD43
:10206000704770470449884204D10448006800283A
:1020700000D0004770470000A01A0020D8010020BF
:10208000704770B5040004D094F83D00002510B1ED
:1020900006E0012070BD84F83C50204600F022F894
:1020A000242084F83D002068C16821F40051C160FB
:1020B000204601F001F82068016921F49041016196
:1020C0002068416921F02A0141612068C16841F41A
:1020D0000051C1602564202084F83D0084F83E0052
:1020E000002070BD10B586B0044614216846FEF786
:1020F000E0F813492068884220D112480021026884
:1021000042F400320260006800F4003005900D488F
:102110001038026842F001020260006800F001001D
:1021200005900C2000900220CDE9010103200390CE
:102130000720049069460448FEF79CFD06B010BDD8
:102140000044004040380240000002402DE9F843BE
:10215000044690F83D001F4616460D4620284CD1F7
:10216000C5B1BEB194F83C00012846D0012084F8E6
:102170003C004FF00008C4F84080212084F83D0066
:10218000FEF76EFEA6848146E684A068B0F5805F07
:1021900003D004E00120BDE8F883206928B12E4671
:1021A0005FF0000584F83C800EE00026FAE780210D
:1021B000204601F007F8A0B9AEB116F8010B21686E
:1021C0004860E08C401EE084E08C4B464FF00002FB
:1021D00000970028EBD14FF04001204600F0F2FFBD
:1021E00030B10320D7E735F8020BC0F30800E6E76B
:1021F000202084F83D000020CDE70220CBE7FEE759
:1022000010B504460020022A08D0002344B1012C56
:102210000AD0022C0DD0032C11D10FE00123F5E7D9
:10222000012A0ED10A2010BD09B1042007E00820C0
:1022300005E009B1052002E0092000E00A20002B9A
:10224000F1D1002010BD0246002031B1012906D095
:10225000022901D142B1032070470A2070470AB118
:102260000220704706207047072070472DE9F0478D
:102270008CB04FF00008149ECDF80C809A46914621
:102280000F460400CDF81C80CDF80480CDF81080F6
:10229000CDF814808DF80C800AD04FB146B101AB57
:1022A00007AA4946384600F0ABF8050002D04BE0DB
:1022B000012549E004F15C0349463846079A00F0DD
:1022C00067FA050040D1E16D2046019A0DF09EFEAF
:1022D0000199884201DA032536E000963A7803AB8B
:1022E000514620460DF02AF905002DD131780026FF
:1022F000CDF824808DF808805CB199B102AA09A9B3
:10230000204600F0FBF9011E00D026B1350012D0A6
:102310001AE0AFF300809DF8082020460DF0D4FEAF
:102320000646EBE728212046FDF7C3FF282104F1EC
:102330002800FDF7BEFF012004F8660F7888208290
:1023400084F81680C4F812800CB02846BDE8F087E7
:1023500010B5030001D011B106E0012010BD1878BE
:10236000202801D0D028F8D112B918782028F4D02C
:102370005C6814B91878D028EFD1187870281FD06D
:1023800008DC20280DD040281AD0502818D0622808
:102390001BD115E090280AD0B02811D0D02814D134
:1023A0000AE0BDE810401146184601F035BFBDE80F
:1023B0001040184601F0AFBF9968002029B910BD40
:1023C000002021B19A68022A03D0052010BDAFF386
:1023D0000080228852BA0A80002AF6D010BD30B49C
:1023E00058B151B14AB103780324B4EB131F04D19F
:1023F000436813B130BC01F03BBF30BC01207047D3
:102400002DE9F0411E461746002550B14FB146B1A7
:10241000048934B1426822B129B10A69B2F5803F1A
:1024200001D3012517E00C3421B10A890969241D63
:1024300011440C44C16811B1018AA41C0C444169C7
:1024400011B1008BA41C044420460DF00FFB204466
:10245000401C3C6030602846BDE8F0812DE9F84F13
:102460005FEA020A0E4604464FF000050AD0012238
:1024700051463046A047012806D0E8B30425284637
:10248000BDE8F88F0125FAE79AF80000002100F076
:10249000F0021211921E0C2A36D2DFE802F0080870
:1024A0000808060835083508350880072CD5A146E8
:1024B0000024B346012627468DF800104FF08058BF
:1024C00003E000BFB6F5001F19D80122694658463F
:1024D0004B469847012812D19DF800007F1C00F060
:1024E0007F0101FB0644F601444509D00006E9D40A
:1024F00020460DF0BBFA00E008E0874200D04446D9
:10250000CAF808404445BAD10525B8E70725B6E71B
:1025100001004FF0000009D0B1F86400A0F57F423F
:10252000FF3A04D010F10102A1F8642070470122A3
:10253000FAE7002118B10222026008467047012123
:10254000FBE710B5002440B139B132B1436823B183
:10255000038913B101F042FB00B90124204610BDEC
:1025600038B538B132B12BB121B10024009401F05B
:1025700067FB38BD012038BD2DE9F0471F46DDF867
:10258000209090460E4604004FF0000522D00EB376
:102590005FEA09001ED0B8F1000F1BD0D7B1306838
:1025A000C0B17068B0B180212046FDF782FE0020E6
:1025B00084F8660096E80700503484E80700C4E910
:1025C0000687D9E90010C4E903100120A08228463B
:1025D000BDE8F0870125FAE738B505004FF00000A7
:1025E000009005D06846FFF7A4FF040002D016E073
:1025F000012414E005F15C0000F0EFF804000ED1B6
:10260000E96D2846009A0DF001FD0099884201DA33
:10261000032404E0286FA867012085F87C00204689
:1026200038BD2DE9F04104000D464FF00106884603
:1026300017D0A06EA8B1E16D99B180470746002080
:1026400084F874000122414620460CF0ECFF06009D
:1026500007D1A06E8047C01BA84202D2A5EB00089C
:10266000F0E73046BDE8F081F0B589B005004FF0E5
:10267000000016460C4604908DF8140011D084B169
:10268000217801B16EB1216909B1E16849B10190C8
:10269000069004AF06AA01A92046FFF752FF18B121
:1026A0000AE0012009B0F0BD05F15C030097314656
:1026B0002046019A00F0A4F80028F3D122783AB11C
:1026C0003146284600F030F8092813D00028E9D117
:1026D00021462846049A0DF0D3FC0028E2D1237845
:1026E000002BDFD005A8009000223146284600F0DC
:1026F00095F9D7E7A1780129EAD0D3E710B503000F
:1027000014464FF000000ED000290CD0002C0AD047
:102710004FF404700A46014618460FF083FD002866
:1027200001D00421217010BD38B504460020002AD4
:1027300009D049B144B1012013460A4600900A214C
:10274000204601F083F838BD012038BD30B50300C4
:102750004FF0000006D01C6824B15D68042D03D240
:10276000022030BD012030BD002AFBD0402905D019
:10277000502903D0622901D07029F3D121701C683F
:10278000022161701C68110AA1701968CA7030BDFD
:102790002DE9F0411D460E465FEA000817464FF04E
:1027A00000040FD075B1286860B10EB1706848B1EF
:1027B00010460DF05BF938446968401C814203D231
:1027C000022407E0012405E02B463A463146404604
:1027D0000EF018F82046BDE8F08101004FF000002F
:1027E00006D00A6822B14B68022B03D20220704740
:1027F00001207047C0231370096800224A70704797
:102800002DE9F84F1F00DDF8288091468A460546DD
:102810004FF0000412D08DB15FEA08000ED0386886
:1028200060B1686850B1288940B1287810B1BAF118
:10283000000F03D0A978012902D003E0012417E09A
:102840000028FBD010460DF011F929694844461ABA
:102850007868761CB04201D2022409E00020009082
:102860003B465246494628460EF034F8C8F8006008
:102870002046BDE8F88F00002DE9F84F9A46DDF8B4
:1028800028801546894607460024CDF800800FF0C1
:10289000F0FD06001DD1D8F80000822100F8011BD0
:1028A000514601F0D7FF290A00F8011B00F8015B2F
:1028B0000DE000BF04EB440507EB85010A89496878
:1028C00001F0D8FF17F8251000F8011B641C4C45D7
:1028D000F0D33046BDE8F88F2DE9FE4305460020D1
:1028E000029001901E461746884628460FF0B6FD16
:1028F00004001BD101AB02AA39464046FFF730FE67
:10290000040013D105F15C00009032463946404680
:10291000029BFFF7B1FF040008D1E96D2846019A38
:102920000DF074FB0199884200DA03242046BDE8CB
:10293000FE832DE9FE4F9A464FF000038846DDF8EE
:10294000309015008DF80430194605D0012D03D0C4
:10295000022D05D0032D07D1BAF1010F12D002E0EC
:10296000BAF1000F0ED000218DF80830052738B1DC
:102970005FEA090204D0B8F1000201D0032D03D9A7
:10298000012748E00121EFE779B3064601A800904E
:1029900002AB0A21304601F07EFF04460A283AD2F3
:1029A0009DF8082051462846FFF72AFCA2469DF8CC
:1029B000047005460824DEB10A2D1BD0042D19D061
:1029C00000208346294638460FF06AFDF8B10024FE
:1029D0002846AF4207D002465B46514630460FF0CC
:1029E000F2FC042D08D0274613E0FFE72830CCE79F
:1029F000AFF300800120E4E7042000900223424668
:102A00000A21304600F022FF070002D003E02746EB
:102A100001E089F800503846BDE8FE8F2DE9F04707
:102A200086B089464FF000015FEA000A0E9F1C46FF
:102A300090468DF80C1008464FF00A058DF81010DE
:102A400008D03FB10CB3B9F1000F30D0B8F1000F8E
:102A50001ED004E00120002C14D0002812D1214601
:102A60004046FFF7F0FB06469DF80C004346CDE9D3
:102A700000404A462946029650460FF0B1FC002815
:102A800000D13E7006B0BDE8F0870A213970F9E741
:102A900003A8009004AB4A460A21504601F0FBFE11
:102AA00005460A2803D09DF81000A042D7D0012087
:102AB000E8E7000030B587B014216846FDF7F9FB60
:102AC0001F480024016841F004010160016801F021
:102AD00004010591016841F080010160016801F085
:102AE00080010591016841F001010160016801F078
:102AF00001010591016841F0020101600068114D7A
:102B000000F002000590002240212846FEF7A2F9BD
:102B10004FF4005000904FF40410CDE901046946D1
:102B20000948FEF7A7F8402000900120CDE90104F4
:102B3000694628460394FEF79DF807B030BD0000B3
:102B40003038024000040240000802400E4810B530
:102B50000C4901604FF48271416000218160C160C5
:102B60004FF400720161C0E90512C1610162416266
:102B700081620A21C162FEF737FD002801D072B6DA
:102B8000FEE710BD00300140481A002010B586B0A5
:102B90000024184800940194029403940494144966
:102BA000059401606421C0E9011440F21F31C0E9BD
:102BB00003148021C0E90541FFF7AEF808B172B6F1
:102BC000FEE74FF48050009069460A48FFF726F967
:102BD00008B172B6FEE7049404A906480594FFF70D
:102BE0005DF8002801D072B6FEE706B010BD000007
:102BF00000000140A01A0020FEE7FEE700F00F00F1
:102C0000092801D8303070473730704770470000CE
:102C10000148FEF76BBC0000481A002010B5806B1D
:102C20000021C187C186FEF75DFC10BD10B5806B29
:102C300001684A6822F003024A60416D41F01001C8
:102C40004165012180F85110FEF74CFC10BD10B514
:102C5000806BFEF718FE10BD10B5806BFFF705F80E
:102C600010BD10B5806BFFF702F810BD70B50546BA
:102C7000846BFEF7F5F8024628680068C00526D484
:102C80002068416821F020014160A06818B960689F
:102C9000B0F5827F16D02068416821F001014160C3
:102CA0006421204600F076F808B1202060650020FD
:102CB000E087012084F85100606D40B12046FEF7A6
:102CC00011FC70BD2068416821F00301E7E7204650
:102CD000FEF7D8FD70BD38B50546846BFEF7C0F829
:102CE000024628680068C00523D42068416821F0A6
:102CF000200141602068416821F0020141606421A7
:102D0000204600F075F818B1606D40F02000606555
:102D1000A068002118B92068C26880680090E18628
:102D2000012084F85100606D18B12046FEF7DAFBEF
:102D300038BD2046FEF798FF38BD70B50546846B58
:102D4000FEF78EF8024628680068C0051ED4206889
:102D5000416821F0200141606421204600F048F8DC
:102D600018B1606D40F0200060652068416821F076
:102D7000030141600020E086E087012084F85100D3
:102D8000606D18B12046FEF7ADFB70BD2046FEF722
:102D90006DFF70BDF8B5044640684FF482739842E9
:102DA00021D1A0684FF48065B0F5004F01D0A84252
:102DB0000AD12068066826F04006066060689842DE
:102DC00011D1A068A8420ED000920B4600228021AB
:102DD000204600F039F8002804D0606D40F0200053
:102DE00060650320F8BD00920B4600220121EFE749
:102DF00038B504461248134B0068B0FBF3F04FF4AB
:102E00007A73584300906068B0F5827F0DD10B460D
:102E1000009200228021204600F016F870B1606D0B
:102E200040F020006065032038BD009830B1401E9E
:102E3000009020688068C0430006F6D5002038BDA9
:102E40003801002000366E012DE9F8431E469146F8
:102E500088460446089DFEF703F8401B351AFDF727
:102E6000FFFF074625480068C0F3CB30684338E0D1
:102E7000701C37D0FDF7F4FFC01BA84203D215B178
:102E8000009860B32CE02068416821F0E0014160C7
:102E90006068B0F5827F0BD1A068B0F5004F02D01A
:102EA000B0F5806F04D12068016821F04001016015
:102EB000A06AB0F5005F09D12068016821F40051D3
:102EC00001602068016841F400510160012084F82C
:102ED0005100002084F850000320BDE8F88300254D
:102EE000401E00902068816838EA010004D000216B
:102EF0004945BDD10020F0E70121F9E73801002064
:102F00007047FDF7B3BF000030B593B0302168467D
:102F1000FDF7CFF914210CA8FDF7CBF91C480024CC
:102F2000016841F080510160006800F0805011900C
:102F30001848016841F4404101600068022500F42E
:102F400040401190012003901020049000950695B8
:102F50000820CDE90740A020099004200A900B909A
:102F60006846FEF709F908B172B6FEE70F20CDE911
:102F70000C054FF48050CDE90E4002210CA81094AE
:102F8000FEF710F8002801D072B6FEE713B030BD8E
:102F900040380240007000400248016841F470016E
:102FA0000160704788ED00E00148FEF7A6BF000011
:102FB000A01A0020F0B502681D4B1E4C9F031E4D49
:102FC0001E4E984207D0B84205D0A04203D0A84276
:102FD00001D0B04204D122F0700C4A6842EA0C02DF
:102FE000984210D0B8420ED0A0420CD0A8420AD0CD
:102FF000B04208D0124CA04205D0124CA04202D0E0
:10300000114CA04203D122F44074CA6822434C6997
:1030100022F08002224302608A68C2620A688262E9
:10302000984201D10969016301214161F0BD0000AD
:10303000000001400004004000080040000C004077
:1030400000400140004401400048014010B5846840
:1030500042EA032224F47F440A432243826010BDE3
:10306000826822F070020A4342F0070181607047D3
:1030700010B5036A046A24F001040462846924F030
:10308000F00444EA021423F00A020A438461026253
:1030900010BD10B5036A23F0100303628369046A4C
:1030A00023F4704343EA023224F0A00343EA0111FF
:1030B0008261016210BD000070B5044600680169BC
:1030C000E26821F44051114301612169A068E2697D
:1030D00008436169114308432168CA6849F20C63D7
:1030E0009A430243CA6020684169A26921F4407191
:1030F0001143416131492068884202D030498842F9
:1031000002D1FDF7F9FF01E0FDF7E6FFE2690023D8
:10311000192164253226B2F5004F626828D0A0FB41
:103120000101930F9200FDF755F80146B0FBF5F051
:103130006FF01802504301EB800006EB0010B0FB6B
:10314000F5F000F0F002B1FBF5F002EB0012B1FB7C
:10315000F5F06FF01803584301EB800006EB001008
:10316000B0FBF5F000F00F0021681044886070BDDE
:10317000A0FB010192185B41FDF72CF80146B0FB62
:10318000F5F00201B1FBF5F06FF01803584301EBC5
:10319000800006EBC000B0FBF5F000F0F80002EB99
:1031A0004002B1FBF5F0584301EB800006EBC00094
:1031B000B0FBF5F000F00700D6E70000001001407A
:1031C000001401402DE9F041984617460E4604468A
:1031D000069D27E0681C25D02DB1FDF741FEA0EB30
:1031E0000800A8421ED920680C3050E8001F21F4C6
:1031F000D07140E80012002AF5D12068143050E860
:10320000001F21F0010140E80012002AF5D1202022
:1032100084F83D0084F83E00002084F83C00032040
:10322000BDE8F0812068006836EA000004D0002084
:10323000B842CFD00020F3E70120F9E7FEE7000015
:1032400038B5010C8DF80010010A0D4C8DF80110F5
:103250008DF80200A0688047206980479DF8020031
:103260008DF80200626A032168469047A069804792
:10327000054660698047E0688047284638BD000001
:1032800044010020F8B50E46010C8DF80010010A2B
:103290000D4C8DF801108DF80200A068154680478E
:1032A000206980479DF802008DF80200626A0321C0
:1032B00068469047226A29463046904760698047B1
:1032C000E0688047F8BD00004401002038B5020CDA
:1032D0008DF80020020A8DF801200C4C8DF80200B8
:1032E0008DF80310A0688047206980479DF8020090
:1032F000042140F004008DF80200626A684690479D
:1033000060698047E068804738BD000044010020C4
:10331000F8B50E46010C8DF80010010A0E4C8DF820
:1033200001108DF80200A06815468047206980478B
:103330009DF80200032140F004008DF80200626A4B
:1033400068469047626A29463046904760698047E0
:10335000E0688047F8BD0000440100200FB4054B31
:1033600010B503A9044A029800F040F810BC5DF8BB
:1033700014FB0000C9480008380200200FB4084BB5
:1033800010B504A902AA039800F030F8044602A977
:10339000002000F056FA204610BC5DF814FB000037
:1033A000433800080907090E002804DB00F1E0207B
:1033B00080F80014704700F00F0000F1E02080F862
:1033C000141D7047004870474402002002E008C8FE
:1033D000121F08C1002AFAD170477047002001E08F
:1033E00001C1121F002AFBD1704700002DE9FF4FD9
:1033F0008DB00F460546002606E025280BD0DDE9F6
:103400000F1290476D1C761C28780028F5D111B05A
:103410003046BDE8F08F0024A246A1460122E949CA
:1034200000E0044315F8013F203B02FA03F0084294
:10343000F7D128782A2810D06FF02F022878A0F131
:103440003001092914D80AEB8A0102EB410144F04A
:10345000020400EB010A6D1CF0E701CF5FEA000AED
:1034600003D544F40054CAF1000A44F002046D1C70
:1034700028782E2817D115F8010F44F004042A28C3
:103480000ED06FF02F022878A0F1300109290AD858
:1034900009EB890102EB410100EB01096D1CF2E728
:1034A00057F8049B6D1C28786C280FD006DC4C283C
:1034B00017D068280DD06A2814D104E0742810D0E1
:1034C0007A280FD10DE044F400140AE044F480148B
:1034D00001E044F440146978814202D104F580147B
:1034E0006D1C6D1C28786E281ED00CDC632830D033
:1034F00004DC00288BD0582811D19FE0642867D0C5
:1035000069280CD164E073282DD004DC6F2872D0B8
:10351000702804D194E075286ED078286DD0DDE94C
:103520000F129047761C4BE1C4F30250022806D0DC
:10353000032809D0042801CF09D0066040E101CF5B
:10354000F117C0E900613BE101CF068038E1067068
:1035500036E117F8040B8DF8000000208DF801000B
:10356000EB46012003E057F804BB4FF0FF30610742
:103570004FF0000102D40DE008F1010188464945F1
:103580000FDA8045F8DB1BF808100029F4D108E0B9
:1035900008F1010188468142FADB1BF80810002976
:1035A000F6D1DDE90F23AAEB08008146214600F0A1
:1035B00031F9304400EB080604E0DDE90F121BF896
:1035C000010B9047B8F10108F7D221464846F2E0D6
:1035D0000A21C4F302524FF0000B0891022A04D0D2
:1035E00001CFC117032A09D00AE0FF1D27F0070702
:1035F000F7E8020108E02CE01EE01FE000B2C1176E
:10360000042A01D140B2C117021E71F1000206DA8C
:103610000023D0EB030063EB01012D2202E0220521
:1036200004D52B228DF82420012203E0E20701D0EB
:103630002022F7E7904653E00A210BE0102109E031
:1036400010214FF0000B44F004044FF008090891DA
:1036500003E008214FF0000B0891C4F30252022A44
:1036600004D001CF0021032A06D006E0FF1D27F079
:103670000707F7E8020103E080B2042A00D1C0B2D4
:103680004FF0000822072BD52A78702A07D0DDF8E2
:1036900020C08CF0100C5CEA0B0C05D00EE0402230
:1036A0008DF82420012208E050EA010306D03023DF
:1036B0008DF824308DF8252002229046089B83F057
:1036C000080353EA0B030BD150EA010201D1620750
:1036D00006D530228DF824204FF00108A9F1010908
:1036E0002A78582A04D038A20B9208AA0A920BE032
:1036F0003AA2F9E75B46089AFCF76CFD0B9B9B5CD2
:103700000A9A521E0A92137050EA0102F2D10A98E4
:10371000ADEB000000F1200B600702D524F48034EB
:1037200001E04FF00109D94502DDA9EB0B0000E0F3
:10373000002000EB0B0141440890AAEB010AE003D2
:1037400006D4DDE90F232146504600F063F8064415
:103750004FF0000908E009A911F80900DDE90F128E
:10376000904709F10109761CC145F4DBE0030CD553
:10377000DDE90F232146504600F04CF8064404E0F2
:10378000DDE90F1230209047761C0899481E0890FA
:103790000029F5DC08E00A980A990078491C0A918A
:1037A000DDE90F129047761CBBF10001ABF1010B74
:1037B000F1DC21465046DDE90F2300F019F80644FC
:1037C0006D1C21E60928010030313233343536379B
:1037D000383961626364656600000000303132335D
:1037E00034353637383941424344454600000000FD
:1037F0002DE9F041044600251E461746880404D4EE
:1038000005E039462020B0476D1C641EF9D52846D6
:10381000BDE8F0812DE9F041044600251E469046A2
:10382000C80301D5302700E02027880404D505E02F
:1038300041463846B0476D1C641EF9D52846BDE8A0
:10384000F0810A68531C0B60107070472DE9F84F27
:103850009B46DDF828E002260B464FF0000A72B3C3
:10386000BBF1000F2DD000EB810434F8044C3CB3C5
:1038700007004FF000044FF00A0522D0A0468C420A
:1038800025D237F824C0BCF1000F1CD00A2D14D06B
:1038900027F825C007EB8409CDF8009007EB850CCD
:1038A00099F802908CF80290DDF800906D1C99F860
:1038B00003908CF8039027F82480641CDFE700E075
:1038C00005E0AFF300800A2DF7D12546F5E74C1E41
:1038D00010D400BF30F8245035B14FF0010A9542A2
:1038E00006D109260B4605E0BAF1000F00D12346A8
:1038F000641EEFD58B4208D220F8232000EB830012
:10390000002680F802B080F803E03046BDE8F88F6A
:103910007CB5DDE90645CDE9004501F0EFFD7CBD54
:1039200001F037BE10B54FF48C710120FCF711FD8A
:10393000040003D001F040FE204610BD002010BD61
:1039400010B5044601F031FE2046BDE8104000F0FD
:10395000C9BF00002DE9F04FADF5006D0023012136
:103960000DF580604FEA0D0240F8231042F8213037
:103970000C0601D51B2400E0002484EA41044C40DD
:103980005B1CE1B2FF2BEFDD0021594C012300BF8E
:1039900044F821301D0601D51B2500E0002585EAED
:1039A0004303491CDBB20A29F2DB524C6321002598
:1039B000217004F58853012183F8635052F8216087
:1039C000C6F1FF0650F82660770047EAE617FFB217
:1039D0007E404FEA470C4CEAE717FFB27E404FEAC1
:1039E000470C4CEAE717FFB27E404FEA470C4CEA1F
:1039F000E717FFB27E4086F0630666549955491C6E
:103A0000FF29DBDDDFF8F0900021A34609F5806A8D
:103A100009F5006E5FF0FF041BF801703E0601D54A
:103A20001B2600E0002686EA470606F0FF0C8CEA1B
:103A300007068CEA072C8CEA074787EA066649F8EE
:103A400021604FEA36664AF821604FEA36664EF842
:103A500021604FEA3667294E46F821705E5C46B316
:103A600052F826600E9F374497FBF4FC04FB1C774A
:103A7000DDF824C050F82770B4449CFBF4F804FB34
:103A800018CC50F82CC087EA0C2C0D9F374497FBBC
:103A9000F4F804FB187750F827708CEA0747DDF834
:103AA0002CC0664496FBF4FC04FB1C6650F82660B0
:103AB00001E02F46002687EA0666114F47F821608D
:103AC00007F580674FEA366647F8216007F580679B
:103AD0004FEA366647F821604FEA3667094E46F8E6
:103AE0002170491CFF2997DD0DF5006DBDE8F08FB1
:103AF000444400204422002044230020442F00207E
:103B0000443400204440002001F05ABD01F0BEBD05
:103B100010B5144601F08DFF002805D10021204684
:103B200004F012FF08B1002010BD014810BD0000D4
:103B300000C3FFFF2DE9F041446805461E46A0681A
:103B40001746884630B110210120FCF702FCE060E6
:103B500040B104460020C4F80080C4E901676C60ED
:103B6000BDE8F0816FF06900FAE738B51D461346ED
:103B700004466A4601F088FF00281BD100986FF0C8
:103B80006301B0B120680078000612D405E0401C43
:103B900020600098401E00900DD020680278002A16
:103BA000F5D00098042804D805D1206800780006D4
:103BB00001D5084638BD0020286008E02068296843
:103BC000007840EA012028602068401C20600098AE
:103BD000401E0090401CF1D138BD00002DE9F04797
:103BE0009146884604004FF0010519D0B8F1000F46
:103BF00016D0B9F1000F13D020892178801C01B1B3
:103C0000801C0E490E1A2169B14207D80F18384698
:103C10000BF02CFF2169301A814203D900250AE0FC
:103C2000AFF300803846C8F800700BF01FFF38442F
:103C3000401CC9F800002846BDE8F087FEFFFF0FD2
:103C40002DE9F0411E4603004FF00005DDF818E0B5
:103C5000284604D019B112B10EB1022414E0AFF31A
:103C6000008000BF00EB400703EB870CA41CBCF8EE
:103C70000870BEF1000F3C4400D1641C17B1DCF8A1
:103C8000047007B90125401C8842EBD3B4F1805F72
:103C900001D3012507E035B9204614600BF0E6FE9C
:103CA0002044401C30602846BDE8F08103460020D7
:103CB00001B1921C934200D2052070472DE9FC41CE
:103CC000134E3046FFF7BCFA054603213046FFF796
:103CD000FDFA104B042141F28830CDE90001DC1FD0
:103CE00011220DA1A0780CF0E1FC074629463046D0
:103CF000FFF7ECFA0D3709D00CF022FAE069E16920
:103D0000091A0229FBD30020BDE8FC810120FBE752
:103D10000004420073010020434845434B5F495073
:103D20005F434F4E464C49435400000070B51A4C57
:103D30000125204694F90110002690F9000002297F
:103D400017DAD4E90721914223D2012804D00228AE
:103D500005D0042805D102E00CF07AFA01E00CF05D
:103D600061FBE661E0690A3020626078401C6070A7
:103D70000FE0012804D0022805D0042807D102E072
:103D80002670002503E00CF063FA012020700BF090
:103D900095FE284670BD00006C01002070B50446F9
:103DA000082802D34FF0FF3070BD41F2080000EB4D
:103DB000441005461021FFF789FA2846FFF740FA1C
:103DC0000028FAD142F6080000EB4410FF21FFF76B
:103DD0007DFA0D490120A0404A880C4B82434A805D
:103DE000002223F814208B888343881D8B80025582
:103DF00043F2080000EB44142046FFF721FA0028A4
:103E0000FAD1012070BD0000CA010020402100202D
:103E10002DE9F05F1F4615468B460446082803D35C
:103E20004FF0FF30BDE8F09F600108304FF001090E
:103E30008246FFF705FA00F003006FF0040801283E
:103E40005DD143F2080000EB44100646FFF7F8F995
:103E5000132802D06FF00200E4E70021084605E0D5
:103E60001BF80020401C114489B2C0B2B842F7D3FD
:103E700079B37DB33348290A00EB4410FFF726FAE3
:103E80003148E9B200EB4410FFF720FA41F2080094
:103E900000EB4415102F504623D0FFF7D1F9092825
:103EA0002DD02A48042200EB44105946FFF730FA7F
:103EB00028460421FFF70AFA2846FFF7C1F900282F
:103EC000FAD1234909FA04F0498808422FD000208A
:103ED000A8E700E002E06FF00B00A3E76FF00A0034
:103EE000A0E7FFF7ADF9000709D51A48102200EB4B
:103EF00044105946FFF70CFA28468421DAE7404679
:103F000090E72846FFF79CF9000709D542F608001C
:103F100000EB44100821FFF7D9F96FF00C0081E79E
:103F20003046FFF78DF930B96FF003007AE742F2BF
:103F3000080000EB44153046FFF782F91728E0D15E
:103F400001206FE70840010008410100082001003E
:103F5000CA0100200830010010B5184A0C46082894
:103F600028D2DFE800F004080C1014181C212046A9
:103F70000EF0B4FD1CE020460EF022FC18E0206894
:103F80000EF00AFE14E00EF079FC206010E02046EE
:103F90000EF020FE0CE020460EF08CFC08E02178AC
:103FA0001046FFF793F903E01046FFF749F9207038
:103FB000002010BD4FF0FF3010BD0000002C21008C
:103FC0002DE9F0470C460D7803460021DFF898C133
:103FD000DFF89891DFF898A1664E674F674A084668
:103FE000182B6FD2DFE803F00C1C2D33363E414511
:103FF000494D555B686F7C899BA1A4A8ACB0B6B94C
:10400000680703D5FF216046FFF760F9A80703D5CD
:10401000C5214846FFF75AF9E8071AD0FF210EE0FC
:10402000680703D5CE216046FFF750F9A80703D5EE
:104030003A214846FFF74AF9E8070AD0532150468B
:104040006AE04FF40010FFF7FBF8400938E00EF08B
:1040500019FE7CE014B1204604F10801BDE8F047E8
:104060000EF052BC0EF082FB09E020680EF0E8FA78
:104070006DE020680EF018FD69E00EF08BFB20600B
:1040800065E02088010A3046FFF720F9217838469C
:1040900042E03846FFF7D4F80546304627E015469B
:1040A0001046FFF7CDF82178012902D020F08001D9
:1040B00031E040F080012EE01046FFF7C1F8C00962
:1040C000207044E04CE02E4882782270C278627002
:1040D0000279A2704279E27080792071617136E0D4
:1040E0004FF44070FFF7ACF805464FF40070FFF74F
:1040F000A7F805EB0020208029E015461046FFF7C1
:104100009FF8217811B1012903D020E020F00101AE
:1041100001E040F001012846FFF7D8F817E010460B
:10412000FFF78EF800F00100CAE70EF0D5FE0EE0B2
:1041300020460EF0EBFE0AE020460EF07DFE06E083
:1041400020460EF0ABFE02E028460EF00DFF0020E8
:10415000BDE8F0870EF096FEB2E70EF08BFEAFE7FB
:104160004FF0FF30F4E7000000F4410000F541009B
:1041700000F6410000C5410000C6410000052000D6
:104180004401002010B5042208490948FFF7C0F88F
:104190000649042208310748FFF7BAF80349042208
:1041A000BDE81040091D0448FFF7B2B873010020B4
:1041B00000384100003441000030410010B5074C88
:1041C00000212046FFF782F82046FFF739F8BDE8C6
:1041D0001040062202490348FFF79AB80004200065
:1041E000AC0100200020410010B5084C0021204601
:1041F000FFF76CF82046FFF723F8FFF7C3FFBDE891
:104200001040062202490348FFF782B8000420004C
:10421000AC0100200020410070B586B00024E0B160
:10422000D9B1D0E90150022808D12878420805D137
:10423000C00705D001200870687830B1052411E06E
:104240000020087068780528F8D8C6B218220749F7
:104250006846FCF707F8052E01D9AFF300806878AF
:1042600000B1062406B0204670BD0000C850010809
:104270002DE9F04114460F4606000FD077B16CB11E
:1042800075685DB1307800F00F0041074FEA80712A
:1042900008D5002904DA0520BDE8F081AFF30080DD
:1042A000022204E0002901DA012200E00022C043DA
:1042B00040F300012270491C617040F3C000401CB3
:1042C000A070D1B20322B068FFF7F0FC0028E3D160
:1042D000288842BA22812178921CB068FFF7E6FC58
:1042E0000028D9D1AD1C65602189227829442AB1E2
:1042F00031F8022B52BA3A80002ACCD02389B26816
:10430000D21A921E226123780BB1921E226102B949
:104310000021E160C0E710B588B181B1D0E9012387
:10432000032B0AD3108840BA088030B10020014620
:10433000921CA3F1020311D101E0052010BDAFF3DF
:104340000080545C3CB1012C05D0022C03D0802CA1
:10435000F3D1062001E00528F0D0491C9942F0D3A2
:1043600010BD000070B586B005460E46684604F0E4
:10437000C6FF03A804F0C3FF0221684605F03CF91C
:10438000040013D10222314603A805F03BFB0400D0
:104390000CD16946284604F0EFFA002805DB03A992
:1043A000284604F0E9FA002800DD054C684604F0D0
:1043B000E3FE03A804F0E0FE06B0204670BD000056
:1043C00080CFFFFF2DE9F0471F4690460E468146FD
:1043D0000024304605F0C5FA01463B4642464846B1
:1043E00004F09AFE03E00121484605F079FA050041
:1043F00013D13146484604F0BFFA0028F3DA2046CC
:10440000641C0A2803DD6FF00D00BDE8F087012170
:10441000484604F099FA0028DBDD2846F5E700005D
:1044200070B50C4609680C4B551A022D06DB31F8A5
:10443000025B521A6DBA2160AA4201DA184670BDB9
:104440002A4605F0CDF910B1A0F5445070BD2068A2
:1044500028442060002070BD80CFFFFF2DE9FF477A
:1044600004469046894601A804F049FF04F1700112
:1044700004F11C000D46824604F07EFA04F1640744
:1044800004F1580680B15146284604F0BBFA0500F5
:104490006BD10121304605F0AFF8050065D101214F
:1044A000384605F0A9F81EE00121304604F04CFA28
:1044B000F0B132461146084605F031F9050054D1F5
:1044C0003146221D084605F0EDF805004DD13A466B
:1044D0001146084605F023F9050046D13946221D4C
:1044E000084605F0DFF805003FD104B0BDE8F087CD
:1044F00043464A46211D3046FFF764FF050034D18C
:1045000043464A46211D01A8FFF75CFF05002CD158
:1045100001AA3146384605F002F9050025D1394691
:10452000221D084605F0BEF805001ED13946221DA1
:10453000084604F0EAFE050017D1394601AA0846EC
:1045400005F0EDF8050010D13946221D084605F0AA
:10455000A9F8050009D104F14C0039460090231D4B
:104560005246084604F00CFC054601A804F004FE7F
:104570002846BAE72DE9F74F4FF000040D46060034
:104580004FF0040A274607D0B06E28B18146D6F80E
:1045900060808047834613E0AFF30080281B4045CE
:1045A00000D28046414630460BF0DEF8404506D149
:1045B0000444C8470299A0EB0B00884200D30127AE
:1045C000AC4201D2002FE9D0AC4201D14FF0070A32
:1045D0005046BDE8FE8F00002DE9F0410446082852
:1045E00003D34FF0FF30BDE8F081600101270830B0
:1045F000FEF726FE00F00300012801D0B81FF2E705
:1046000043F2080000EB44100546FEF719FE38B3EC
:1046100041F2080000EB441006460821FEF756FE62
:104620003046FEF70DFE0028FAD10E48A74040881C
:1046300007420CD00020D6E73046FEF701FE000707
:1046400009D52046FFF7AAFB6FF00C00CBE742F23A
:10465000080000EB44162846FEF7F2FD0028EBD1D7
:104660000120C0E7CA01002070B5B0B015460C4665
:104670000646C0236A460AF06BFB411C79D004440D
:10468000204600F081FA0A34092845D008DC0928C0
:104690006BD2DFE800F06A12416A6A41574141007B
:1046A0000F2845D004DC0C2836D00D285DD138E029
:1046B00010285AD01C2858D10CE014F8010B28708F
:1046C00014F8010B687014F8020BA87014F8010CB0
:1046D000E8704AE02078287060786870A078A87048
:1046E000E078E8702079287160796871A079A87104
:1046F000E079E871207A2872607A6872A07AA872EC
:10470000E07AE872207B2873607B6873A07BA873D3
:10471000E07BE873103428E0C0236A460BE00444D1
:1047200023E014F8010B204410F8011B44181CE08E
:10473000C0236A46A41C214630460AF009FB411CEE
:1047400017D0ECE7C0236A46214630460AF000FB4A
:10475000411C0ED00444C0236A46214630460AF06C
:10476000F7FA411C05D004441434204630B070BD23
:10477000FFE70020FAE700002DE9F04303469146E9
:1047800010462A4A0D46B1B05188491C89B2518061
:104790000AF0CEFE4FF4807141EAC32189B20AF0DB
:1047A000C7FE01210AF0C4FE00210AF0C1FE00216B
:1047B0000AF0BEFE00210AF0BBFE04462946684608
:1047C000FBF7BEFD6E463046FBF7A6FD1FFA80F8EC
:1047D0002E213046FBF796FD070002D0B81B85B2AC
:1047E00000E0454604F8015B8DB12A46314620467B
:1047F000FBF77CFD2C443FB1A8EB0500401E2E4486
:104800001FFA80F8761CE3E7002004F8010B084843
:10481000017820460AF08CFE01210AF089FEA0EB07
:10482000090031B000B2BDE8F0830000BC010020F7
:104830002901002010B5B0B00C46C0236A460AF02A
:1048400087FA411C03D02044001D30B010BD002069
:10485000FBE7000010B508B9AFF3008001F07F025C
:10486000C909002902D000BF42F0800200F8012BE4
:10487000F4D110BD70B5154658B12A0A00F8012BC5
:1048800000F8015B044611B12A46FBF7EBFC601906
:1048900070BDAFF3008070B50446049D002012B1D6
:1048A00000262E700DE0AFF3008034F820609642B1
:1048B00006D104EB80018A781A70C978297070BD1E
:1048C000401C8842F1D370BD38B504468DF8000015
:1048D0000A23012269460248FDF738FC204638BD0C
:1048E000E81A002010B5002821D0114B0022001F2B
:1048F000196803E0814203D80A4649680029F9D1C2
:1049000052B11368841A9C4204D1006818441060A4
:10491000104602E0506000E0186039B102680B1ADE
:10492000934203D10B681A4402604968416010BD8C
:104930003C02002013460A46022101F02CBE10B5AD
:104940004FF4C4710120FBF704FD040001D001F015
:104950001EFE204610BD10B5044601F00BFE204699
:10496000BDE81040FFF7BEBF2DE9F04F87B0044609
:1049700000200190029003900490059001A802ABE2
:10498000009010221946204601F026FB002879D11C
:10499000BDF808009DF80A1040BA000440EA012260
:1049A0009DF80B009DF80E100243BDF80C009DF819
:1049B000123040BA000440EA01209DF80F109DF823
:1049C00016500843BDF81010002649BA090441EA00
:1049D00003239DF813104FF061470B43BDF81410EB
:1049E00049BA090441EA05219DF81750C4E9306627
:1049F000C4E91066C4E940022943C4E92013042530
:104A000001F00106A6FB076C5FEA53084FEA31018B
:104A1000520882EA060204EBC50648EAC0734FEA70
:104A20003000C6E93002C6E910134FEA6505002DD3
:104A3000E6DC022304EBC30101F14002F1E9309509
:104A4000D2E900A6012017E004EBC00CE346DCE944
:104A5000307C01EBC00887EA09078CEA050CC8E93D
:104A6000007CDBE9107C02EBC00887EA0A078CEACD
:104A7000060CC8E9007C401C9842E5DB5B00082B73
:104A8000D8DD002007B0BDE8F08F00002DE9F84F19
:104A90008B46C97BDFF8ECE001F00F0100EBC104AD
:104AA0004FF00F0CD4E93031D4E910741BF80C50DE
:104AB000BCF10F0F05F00F094FEA151A1BD01E07A6
:104AC0003D0945EA047546EA141607F00F081C096B
:104AD000CDF800803EF8383000EBC9081F0444EAE6
:104AE000017487EA1117D8E9303163407940D8E979
:104AF00010746F4074401E073D0945EA047546EA8C
:104B0000141607F00F081C093EF8383000EBCA08ED
:104B10001F0444EA017487EA1117D8E93031634071
:104B20007940D8E910746F407440BCF1010CBDD5D8
:104B3000080E1070080C5070080A9070180ED17092
:104B400040EA01201071180C40EA01405071180A27
:104B500040EA01609071D371200E1072200C5072E7
:104B6000200A9072380ED47240EA04201073380C78
:104B700040EA04405073380A40EA04609073D773E7
:104B8000BDE8F88FD04501080178407800EB01209E
:104B900080B27047014610B50020402908D0502946
:104BA00005D0622905D0702905D0AFF3008001201F
:104BB00010BD022010BD032010BD00000148806917
:104BC000704700006C01002004490A7802704A789E
:104BD00042708A788270C978C17070477F01002066
:104BE00004490A7802704A7842708A788270C978DB
:104BF000C17070477701002004490A7802704A7832
:104C000042708A788270C978C17070477301002041
:104C100004490A7802704A7842708A788270C978AA
:104C2000C17070477B0100202DE9F0410B4A01461D
:104C300002EB41150A4A002002EB411406462846C1
:104C4000FEF7FEFA07462046FEF7FAFA00EB0720C9
:104C500000B2B042F2D1BDE8F081000008240200A9
:104C6000082502002DE9F0410B4A014602EB4115EF
:104C70000A4A002002EB411406462846FEF7E0FAF5
:104C800007462046FEF7DCFA00EB072000B2B042F0
:104C9000F2D1BDE8F081000008040200080502001E
:104CA0002DE9FC411F4613460C460646134A194699
:104CB0000320FBF7ABFD3B46224631461048FBF78D
:104CC000B7FD05460A200DF0E3FC002DF3D0012DC1
:104CD00007D02A4631460BA0FEF740FB0020BDE876
:104CE000FC81E178A078CDE9000163782278314633
:104CF0000CA0FEF733FB2846F1E70000EDDB0008CF
:104D0000ED010020202D20444E533A205B25735D99
:104D100020444E53206661696C656420282564290F
:104D20000D0A0000202D20444E533A205B25735D70
:104D30002047657420536572766572204950202D96
:104D40002025642E25642E25642E25640D0A00007E
:104D500018B112B10020116070470148704700007F
:104D6000009FFFFF2DE9FF4104004FF000061746AA
:104D70000D464FF00500ADF80C6014D09DB1E16E0A
:104D800089B188462978702906D00EDC402903D0E5
:104D9000502901D0622903D12946204600F07DF830
:104DA00004B0BDE8F081AFF30080902924D0B02991
:104DB00022D0D029F4D1002203A92846FDF7C8FA51
:104DC00050EA070102D0002110B104E00121FBE705
:104DD0000FB184F87C600029E2D000BFBDF80C1050
:104DE000ADF800108DF808006A4629462046434673
:104DF000019698470020D3E7002203A92846FDF733
:104E0000A7FA0028EAD00628E8D0C9E7F0B50500DF
:104E10008BB04FF000000F468DF80800ADF804008D
:104E200006462AD04FB3E86E38B303AA01A9384624
:104E3000FDF7D5FA04002ED102A800909DF80C30A1
:104E40000122BDF804102846FDF7E8FD04000AD051
:104E5000092C20D1012600249DF80C103046FDF7C6
:104E6000F2F98DF80800BDF80400ADF8200003A8A1
:104E700009908DF8284016B106E0AFF30080EB6E84
:104E800008AA3946284698479DF80820BDF804101E
:104E900028460BF019F90BB0F0BD2DE9F04186B0B2
:104EA0004FF000070D4606008DF808702DD065B351
:104EB000F46E54B32878FFF76DFE8046002201A9F6
:104EC0002846FDF745FA00281CD102A800900123CE
:104ED0004246BDF804103046FDF72BFD002811D1E5
:104EE000BDF80410ADF80C108DF8140003AA294683
:104EF00030460497A0479DF80820BDF804103046BE
:104F00000BF0E2F806B0BDE8F081AFF30080434259
:104F10001843C31703EA01009A43104370472DE971
:104F2000F84F00248A46834626462546FBF7F4F9C7
:104F3000C7B2A146F81FC846CDF8009009283CD258
:104F400031E0FBF779F901681BF80400095C2029BE
:104F500002D02E2814D030E005EB85016FF02F022F
:104F600002EB410101448DB2FF2D26D80DF8080057
:104F700008F1010000F0FF08B8F1030F1DD810E0A0
:104F8000FF2D1AD8761CF6B2042E16D800256846D6
:104F9000FBF7EDF90AEB0601A84601F8010CCDF884
:104FA0000090641CE4B2BC42CBD36846FBF7DFF947
:104FB0000AF806000120BDE8F88F0020FBE700009A
:104FC000B0B000242546FBF759FFFDF79DFFFDF724
:104FD00071FD7A480026016841F480010160006893
:104FE000324600F48000009031463820FBF7A8FFDD
:104FF0003820FBF797FF002211463A20FBF7A0FF6D
:105000003A20FBF78FFFFDF7A1FD6E486C49016068
:105010004FF4E131C0E901160C21C660C0E904611A
:105020008661C661FDF72DF808B172B6FEE7FDF79F
:10503000ADFD4FF4FA60FBF70BFE63A0FEF78EF9AF
:105040000DF0F2FD0DF026FD0DF09EFC0DF0B6FA10
:1050500061480DF0A9FA614957220F466846FBF7EF
:1050600001F95E496722103916A8FBF7FBF80DF12C
:10507000580C9CE80F0009F0F5FC584E103E96F8CD
:10508000660010283CD0572239466846FBF7EAF8FC
:105090006722314616A8FBF7E5F80DF1580C9CE89D
:1050A0000F000AF01FF9474C02204434002384F813
:1050B0004005012084F8410548481A46D238C4F812
:1050C00034053E30C4F838053E30C4F83C053C2079
:1050D000009043A1012009F047FB42F2B32044A114
:1050E000CDE900104FF40063514A029401210020E1
:1050F00009F004FA010029D04EA0FEF72FF9FEE7CF
:1051000058A0FEF72BF95D490120FBF731FA5D4904
:105110005B4A08460AF060FCFBF76EFA042808D0E8
:1051200058B1052CF8D958A0FEF718F9FBF7F6FA94
:10513000FEE759A0FEF712F9B5E7641CE4B2052CAE
:10514000F1D8214658A0FEF709F9E5E760A1002053
:1051500009F0A0FB010003D06AA0FEF7FFF8FEE70C
:1051600008F044FD044642F2107700BF96F866004E
:10517000102801D1FBF740FA3C2009F00BFC01009C
:1051800003D06CA0FEF7EAF8FEE708F02FFDE11966
:105190008842EBD908F02AFD04462A466D1C70A10E
:1051A0007C48FEF7EBF87B48FBF7B6F80246002395
:1051B000784979A009F018FBD8E7000030380240A0
:1051C00000440040E81A00205B44454255475D20FA
:1051D00048656C6C6F0D0A008DFA0008D200002043
:1051E0006D795F696F745F6465766963650000005F
:1051F0006163636F756E742D73706563696669634F
:105200002D7072656669782D6174732E696F742EC6
:1052100061702D6E6F727468656173742D322E61CA
:105220006D617A6F6E6177732E636F6D00000000A1
:10523000480A0020204661696C65642C206D7174F9
:10524000745F7472616E73706F72745F636F6E6E91
:105250006563742072657475726E65642025640AD6
:1052600000000000204448435020636C69656E7460
:105270002072756E6E696E670A0000004802002099
:105280004D270108A52601082044484350206661A7
:10529000696C65640A00000020444843502073751F
:1052A00063636573730A00002044484350207469A7
:1052B0006D656F7574206F636375727265642061CC
:1052C0006E642072657472792025640A0000000003
:1052D000246177732F7468696E67732F6D795F69C6
:1052E0006F745F6465766963652F736861646F7757
:1052F0002F7570646174652F616363657074656494
:1053000000000000204661696C65642C206D71749A
:10531000745F7472616E73706F72745F73756273B1
:1053200063726962652072657475726E65642025AA
:10533000640A0000204661696C65642C206D7174FC
:10534000745F7472616E73706F72745F7969656C8B
:10535000642072657475726E65642025640A0000AD
:105360007B226D657373616765223A2248656C6CB8
:105370006F2C20576F726C6421222C202270756272
:105380006C69736820636F756E74223A22256422FB
:105390007D0A000048120020246177732F74686929
:1053A0006E67732F6D795F696F745F64657669638B
:1053B000652F736861646F772F7570646174650021
:1053C0001CB5062269463048FDF75CFF2F4A0120D4
:1053D000D16B08704870062088700020C870936BED
:1053E0001B0E0B71936B1B0C4B71138F1B0A8B7174
:1053F00092F83830CB71D16B802308818B72C872E0
:10540000D16B02F14003087348738873C873087442
:1054100048748874C874087548758875C8750876A6
:1054200048768876C8761C780C775C784C779C78C0
:105430008C77DC78CC771C7981F820405B7981F817
:1054400021300623CC185B1CDBB22077102BF9D35C
:10545000D36B00215C18491CC9B284F82C00402988
:10546000F8D3D36B00215C18491CC9B284F86C00D6
:105470008029F8D3D06B6321822200F8EC1F4270A0
:1054800053228270C1701CBD002041006C010020BD
:10549000F0B50B30154D20F007010024144A0FE041
:1054A00003688B420BD38B4205D95E1A43184768B9
:1054B000C3E9006700E04368136002C004E0021D16
:1054C00010680028ECD12046002802D1286808B1D5
:1054D0000020F0BD064A07481060074A121A22F061
:1054E0000702C0E9002401202860D7E7400200201D
:1054F0003C0200208C440020884401202DE9FF4715
:105500008146DDE90C641F4615468846100704D025
:105510006FF0210004B0BDE8F087B8F1000F1BD098
:1055200033E0102231466846FAF79CFE23463246A5
:105530004146484600F02DF80020215C3A5C51407D
:105540002154401C1028F8DB102269463846FAF72F
:1055500089FE1034103D1036002DE2D117E00020F6
:10556000315C3A5C51402154401C1028F8DB234642
:105570001A464146484600F00CF8102221463846AB
:10558000FAF770FE1034103D1036002DE7D10020E0
:10559000C0E730B4144601291A46214602D030BC77
:1055A00001F038B930BC01F099BB002803D04FF4AA
:1055B0008C7104F0BFBE70474FF48C71FAF779BE5E
:1055C0002DE9F04FC7B0054616460F466846FFF76F
:1055D000F3FF05F108043246394668466C6000F076
:1055E00055F84690F0BB00982860DDE9001000EB0C
:1055F000011101C901C401C901C401C944F8080B62
:1056000051F81C0944F8040C2A6828E01E480025BB
:1056100000F5905900F5B05A00F5D05C00F5F05B4C
:1056200008C950FA83F637786D1C59F82760C3F320
:10563000072710F807805AF828707E40C3F3074701
:1056400000EB1363C75D93F800805CF827705BF88C
:1056500028305F407E4040C4042DE1DB2039521EDB
:10566000002A00E008E0D1DC08682060486860603B
:105670008868A060C868E0606846FFF796FF4698B3
:1056800047B0BDE8F08F0000442200202DE9F04132
:1056900016460F460546802A08D0C02E08D0B6F51B
:1056A000807F0BD06FF01F00BDE8F0810A2000E082
:1056B0000C20654C2860206810B105E00E20F8E74A
:1056C000FEF748F90120206005F1080400206C6015
:1056D0000CE000BF07EB80018B780A88C97863F380
:1056E0001F4242EA016144F82010401CB0EB561FF3
:1056F000F0D3564A2968A2F508500A2904D00C298B
:105700002CD00E2929D157E05FF0000354F80C5B30
:1057100052F823104D4002CCC1F30726C1F30747CE
:10572000865DC75D86EA0726754000EB1166367810
:1057300085EA064550FA81F636785B1C85EA0665EF
:10574000256054F80C6C6E40666054F8085C754037
:105750006940C4E902510A2BD8D373E05FF000031B
:10576000256852F823104D406169C1F30726C1F343
:105770000747865DC75D86EA0726754000EB116620
:10578000367885EA064550FA81F636785B1C85EA5C
:105790000666A66165687540E561A6686E4026628A
:1057A000E5687540656226696E407140C4E90A612A
:1057B0001834082BD4D345E05FF00005236852F875
:1057C00025104B40E169C1F30726C1F30747865D09
:1057D000C75D86EA0726734000EB1166367883EAD8
:1057E000064350FA81F6367883EA066626626368D5
:1057F00073406362A6685E40A662E3687340E3623A
:1058000050FA83F73F782669C3F3074C7E40C3F311
:10581000072710F80CC0C75D00EB13633F0287EA4F
:105820000C471B787E4086EA0363236366696D1C20
:105830005E406663A36973405940C4E90E31203469
:10584000072DBBD300202FE7FC010020444400209B
:10585000F8B51D4616460F46044630236A4600F04A
:1058600013F9002805D12068391A012902DA6FF0EE
:105870005F00F8BD00783060206800990623471863
:10588000321D3946204600F0FFF80028F1D120688B
:10589000B0602068716808442060B84204D10C21CF
:1058A000284604F047FD16E00078286020682A1D8D
:1058B000401C20603946204600F06AF80028D8D104
:1058C0002068A8602068696808442060B84202D057
:1058D0006FF06500F8BD0020F8BD70B514460E46A7
:1058E0000546032300F0D0F800280AD1206848B10B
:1058F000401E2060286800782071072805D96FF0C5
:10590000630070BD6FF05F0070BD2868401C2860A8
:10591000A0602868216808442860B04202D06FF077
:10592000650070BD002070BD30B5144605460323E8
:1059300000F0AAF8002809D120686FF0670120B1B3
:10594000401E2060286802780AB1084630BD401C1D
:105950002860002030BD38B51546044601236A464C
:1059600000F092F8002804D10098012802D06FF0CE
:10597000630038BD2068007800B1012028602068ED
:10598000401C2060002038BD13460222FEF7EDB80F
:10599000F0B503686FF05F06CC1A012C45DB1D786B
:1059A0002F0604D45C1C04601B78136038E005F0FB
:1059B0007F05012D08D0022D0DD0032D14D0042D0C
:1059C0001FD06FF06300F0BD022C2EDB5B781360FC
:1059D00003689B1C23E0032C27DBB3F801305BBA80
:1059E00013600368DB1C1AE0042C1EDB5C789D78D6
:1059F0002404DB7844EA05241C43146003681B1D5F
:105A00000DE0052C11DBB3F80140DD7864BA240405
:105A10001B7944EA05241C43146003685B1D036082
:105A200000681268081A824201D93046F0BD002091
:105A3000F0BD38B51546044602236A4600F024F846
:105A4000002808D121682846009A03F0C9FE216881
:105A5000009A1144216038BD30B587B00024CDE9EB
:105A60000432146054609460D46004AA054DCDE9FA
:105A700002520094DBB20194FF2200F019F807B043
:105A800030BD0000353B000830B404680D1B012D0B
:105A900003DA6FF05F0030BC704725789D4202D07A
:105AA0006FF06100F7E7641C046030BCFFF770BF63
:105AB0002DE9F84F1F46DDE90AA990460E46044637
:105AC00030236A46DDF830B0FFF7DEFF002808D14A
:105AD000206800990844B04201D1206826E06FF0A8
